{
  "contractName": "Election",
  "abi": [
    {
      "inputs": [],
      "payable": false,
      "stateMutability": "nonpayable",
      "type": "constructor"
    },
    {
      "anonymous": false,
      "inputs": [
        {
          "indexed": false,
          "internalType": "uint256",
          "name": "id",
          "type": "uint256"
        },
        {
          "indexed": false,
          "internalType": "string",
          "name": "name",
          "type": "string"
        }
      ],
      "name": "CandidateAdded",
      "type": "event"
    },
    {
      "anonymous": false,
      "inputs": [
        {
          "indexed": true,
          "internalType": "uint256",
          "name": "candidateId",
          "type": "uint256"
        }
      ],
      "name": "VoteConducted",
      "type": "event"
    },
    {
      "constant": true,
      "inputs": [],
      "name": "candidateApplied",
      "outputs": [
        {
          "internalType": "uint256",
          "name": "",
          "type": "uint256"
        }
      ],
      "payable": false,
      "stateMutability": "view",
      "type": "function"
    },
    {
      "constant": true,
      "inputs": [
        {
          "internalType": "uint256",
          "name": "",
          "type": "uint256"
        }
      ],
      "name": "candidateDetails",
      "outputs": [
        {
          "internalType": "uint256",
          "name": "id",
          "type": "uint256"
        },
        {
          "internalType": "string",
          "name": "name",
          "type": "string"
        },
        {
          "internalType": "uint256",
          "name": "votes",
          "type": "uint256"
        }
      ],
      "payable": false,
      "stateMutability": "view",
      "type": "function"
    },
    {
      "constant": true,
      "inputs": [
        {
          "internalType": "address",
          "name": "",
          "type": "address"
        }
      ],
      "name": "voters",
      "outputs": [
        {
          "internalType": "bool",
          "name": "",
          "type": "bool"
        }
      ],
      "payable": false,
      "stateMutability": "view",
      "type": "function"
    },
    {
      "constant": false,
      "inputs": [
        {
          "internalType": "string",
          "name": "_name",
          "type": "string"
        },
        {
          "internalType": "uint256",
          "name": "_vote",
          "type": "uint256"
        }
      ],
      "name": "addCandidate",
      "outputs": [],
      "payable": false,
      "stateMutability": "nonpayable",
      "type": "function"
    },
    {
      "constant": false,
      "inputs": [
        {
          "internalType": "uint256",
          "name": "_candidateId",
          "type": "uint256"
        }
      ],
      "name": "vote",
      "outputs": [],
      "payable": false,
      "stateMutability": "nonpayable",
      "type": "function"
    }
  ],
  "bytecode": "0x608060405234801561001057600080fd5b50610752806100206000396000f3fe608060405234801561001057600080fd5b50600436106100575760003560e01c80630121b93f1461005c5780636247e5321461008a578063a3ec138d1461013f578063c37495281461019b578063e23cec7b146101b9575b600080fd5b6100886004803603602081101561007257600080fd5b810190808035906020019092919050505061027e565b005b6100b6600480360360208110156100a057600080fd5b810190808035906020019092919050505061046f565b6040518084815260200180602001838152602001828103825284818151815260200191508051906020019080838360005b838110156101025780820151818401526020810190506100e7565b50505050905090810190601f16801561012f5780820380516001836020036101000a031916815260200191505b5094505050505060405180910390f35b6101816004803603602081101561015557600080fd5b81019080803573ffffffffffffffffffffffffffffffffffffffff169060200190929190505050610531565b604051808215151515815260200191505060405180910390f35b6101a3610551565b6040518082815260200191505060405180910390f35b61027c600480360360408110156101cf57600080fd5b81019080803590602001906401000000008111156101ec57600080fd5b8201836020820111156101fe57600080fd5b8035906020019184600183028401116401000000008311171561022057600080fd5b91908080601f016020809104026020016040519081016040528093929190818152602001838380828437600081840152601f19601f82011690508083019250505050505050919291929080359060200190929190505050610557565b005b600160003373ffffffffffffffffffffffffffffffffffffffff1673ffffffffffffffffffffffffffffffffffffffff16815260200190815260200160002060009054906101000a900460ff161561033e576040517f08c379a00000000000000000000000000000000000000000000000000000000081526004018080602001828103825260178152602001807f596f75206861766520616c726561647920766f7465642e00000000000000000081525060200191505060405180910390fd5b60008111801561035057506000548111155b6103c2576040517f08c379a00000000000000000000000000000000000000000000000000000000081526004018080602001828103825260158152602001807f496e76616c69642063616e6469646174652049442e000000000000000000000081525060200191505060405180910390fd5b60018060003373ffffffffffffffffffffffffffffffffffffffff1673ffffffffffffffffffffffffffffffffffffffff16815260200190815260200160002060006101000a81548160ff0219169083151502179055506002600082815260200190815260200160002060020160008154809291906001019190505550807f22f1a94f7db358969b011f81993465bdbab150d13b656152cda3e34334eae28c60405160405180910390a250565b6002602052806000526040600020600091509050806000015490806001018054600181600116156101000203166002900480601f0160208091040260200160405190810160405280929190818152602001828054600181600116156101000203166002900480156105215780601f106104f657610100808354040283529160200191610521565b820191906000526020600020905b81548152906001019060200180831161050457829003601f168201915b5050505050908060020154905083565b60016020528060005260406000206000915054906101000a900460ff1681565b60005481565b600080815480929190600101919050555060405180606001604052806000548152602001838152602001600081525060026000805481526020019081526020016000206000820151816000015560208201518160010190805190602001906105c0929190610678565b50604082015181600201559050507fe83b2a43e7e82d975c8a0a6d2f045153c869e111136a34d1889ab7b598e396a3600054836040518083815260200180602001828103825283818151815260200191508051906020019080838360005b8381101561063957808201518184015260208101905061061e565b50505050905090810190601f1680156106665780820380516001836020036101000a031916815260200191505b50935050505060405180910390a15050565b828054600181600116156101000203166002900490600052602060002090601f016020900481019282601f106106b957805160ff19168380011785556106e7565b828001600101855582156106e7579182015b828111156106e65782518255916020019190600101906106cb565b5b5090506106f491906106f8565b5090565b61071a91905b808211156107165760008160009055506001016106fe565b5090565b9056fea265627a7a723158209b3c5913215f57ade75f97e7129195b09d6eef0b1bf02f76106b88297c574fbf64736f6c63430005100032",
  "source": "// SPDX-License-Identifier: MIT\r\npragma solidity >=0.4.22;\r\n\r\ncontract Election {\r\n    uint public candidateApplied;\r\n\r\n    struct Candidate {\r\n        uint id;\r\n        string name;\r\n        uint votes;\r\n    }\r\n\r\n    mapping(address => bool) public voters;\r\n    mapping(uint => Candidate) public candidateDetails;\r\n\r\n    event CandidateAdded(\r\n        uint id,\r\n        string name\r\n    );\r\n    \r\n    event VoteConducted(\r\n        uint indexed candidateId\r\n    );\r\n\r\n    function addCandidate(string memory _name, uint _vote) public {\r\n        candidateApplied++;\r\n        candidateDetails[candidateApplied] = Candidate(candidateApplied, _name, 0);\r\n        emit CandidateAdded(candidateApplied, _name);\r\n    }\r\n\r\n    constructor () public {\r\n        //addCandidate(\"testing\", 123);\r\n    }\r\n    \r\n    function vote(uint _candidateId) public {\r\n        require(!voters[msg.sender], \"You have already voted.\");\r\n        require(_candidateId > 0 && _candidateId <= candidateApplied, \"Invalid candidate ID.\");\r\n\r\n        voters[msg.sender] = true;\r\n        candidateDetails[_candidateId].votes++;\r\n\r\n        emit VoteConducted(_candidateId);\r\n    }\r\n}\r\n",
  "sourcePath": "C:\\Projects\\dApps\\votingsystem\\contracts\\Election.sol",
  "compiler": {
    "name": "solc",
    "version": "0.5.16+commit.9c3226ce.Emscripten.clang"
  },
  "schemaVersion": "3.4.16",
  "updatedAt": "2024-07-15T12:11:29.227Z",
  "networkType": "ethereum",
  "devdoc": {
    "methods": {}
  },
  "userdoc": {
    "methods": {}
  }
}